{
  "_format": "hh-sol-artifact-1",
  "contractName": "MyNFT",
  "sourceName": "contracts/MyNFT.sol",
  "abi": [
    {
      "inputs": [
        {
          "internalType": "string",
          "name": "name_",
          "type": "string"
        },
        {
          "internalType": "string",
          "name": "symbol_",
          "type": "string"
        },
        {
          "internalType": "uint256",
          "name": "maxSupply_",
          "type": "uint256"
        },
        {
          "internalType": "uint256",
          "name": "presaleSupply_",
          "type": "uint256"
        },
        {
          "internalType": "uint256",
          "name": "presalePrice_",
          "type": "uint256"
        },
        {
          "internalType": "uint256",
          "name": "publicSalePrice_",
          "type": "uint256"
        }
      ],
      "stateMutability": "nonpayable",
      "type": "constructor"
    },
    {
      "inputs": [],
      "name": "AccountNotAllowlisted",
      "type": "error"
    },
    {
      "inputs": [],
      "name": "AmountExceedsAllowlistLimit",
      "type": "error"
    },
    {
      "inputs": [],
      "name": "AmountExceedsSupply",
      "type": "error"
    },
    {
      "inputs": [],
      "name": "ApprovalCallerNotOwnerNorApproved",
      "type": "error"
    },
    {
      "inputs": [],
      "name": "ApprovalQueryForNonexistentToken",
      "type": "error"
    },
    {
      "inputs": [],
      "name": "ApprovalToCurrentOwner",
      "type": "error"
    },
    {
      "inputs": [],
      "name": "ApproveToCaller",
      "type": "error"
    },
    {
      "inputs": [],
      "name": "BalanceQueryForZeroAddress",
      "type": "error"
    },
    {
      "inputs": [],
      "name": "IncorrectPayment",
      "type": "error"
    },
    {
      "inputs": [],
      "name": "MintToZeroAddress",
      "type": "error"
    },
    {
      "inputs": [],
      "name": "MintZeroQuantity",
      "type": "error"
    },
    {
      "inputs": [],
      "name": "OwnerQueryForNonexistentToken",
      "type": "error"
    },
    {
      "inputs": [],
      "name": "SaleNotStarted",
      "type": "error"
    },
    {
      "inputs": [],
      "name": "TransferCallerNotOwnerNorApproved",
      "type": "error"
    },
    {
      "inputs": [],
      "name": "TransferFromIncorrectOwner",
      "type": "error"
    },
    {
      "inputs": [],
      "name": "TransferToNonERC721ReceiverImplementer",
      "type": "error"
    },
    {
      "inputs": [],
      "name": "TransferToZeroAddress",
      "type": "error"
    },
    {
      "inputs": [],
      "name": "URIQueryForNonexistentToken",
      "type": "error"
    },
    {
      "anonymous": false,
      "inputs": [
        {
          "indexed": true,
          "internalType": "address",
          "name": "owner",
          "type": "address"
        },
        {
          "indexed": true,
          "internalType": "address",
          "name": "approved",
          "type": "address"
        },
        {
          "indexed": true,
          "internalType": "uint256",
          "name": "tokenId",
          "type": "uint256"
        }
      ],
      "name": "Approval",
      "type": "event"
    },
    {
      "anonymous": false,
      "inputs": [
        {
          "indexed": true,
          "internalType": "address",
          "name": "owner",
          "type": "address"
        },
        {
          "indexed": true,
          "internalType": "address",
          "name": "operator",
          "type": "address"
        },
        {
          "indexed": false,
          "internalType": "bool",
          "name": "approved",
          "type": "bool"
        }
      ],
      "name": "ApprovalForAll",
      "type": "event"
    },
    {
      "anonymous": false,
      "inputs": [
        {
          "indexed": true,
          "internalType": "address",
          "name": "previousOwner",
          "type": "address"
        },
        {
          "indexed": true,
          "internalType": "address",
          "name": "newOwner",
          "type": "address"
        }
      ],
      "name": "OwnershipTransferred",
      "type": "event"
    },
    {
      "anonymous": false,
      "inputs": [
        {
          "indexed": true,
          "internalType": "address",
          "name": "from",
          "type": "address"
        },
        {
          "indexed": true,
          "internalType": "address",
          "name": "to",
          "type": "address"
        },
        {
          "indexed": true,
          "internalType": "uint256",
          "name": "tokenId",
          "type": "uint256"
        }
      ],
      "name": "Transfer",
      "type": "event"
    },
    {
      "inputs": [
        {
          "internalType": "address",
          "name": "account",
          "type": "address"
        }
      ],
      "name": "allowlistClaimed",
      "outputs": [
        {
          "internalType": "bool",
          "name": "",
          "type": "bool"
        }
      ],
      "stateMutability": "view",
      "type": "function"
    },
    {
      "inputs": [
        {
          "internalType": "address",
          "name": "to",
          "type": "address"
        },
        {
          "internalType": "uint256",
          "name": "tokenId",
          "type": "uint256"
        }
      ],
      "name": "approve",
      "outputs": [],
      "stateMutability": "nonpayable",
      "type": "function"
    },
    {
      "inputs": [
        {
          "internalType": "address",
          "name": "owner",
          "type": "address"
        }
      ],
      "name": "balanceOf",
      "outputs": [
        {
          "internalType": "uint256",
          "name": "",
          "type": "uint256"
        }
      ],
      "stateMutability": "view",
      "type": "function"
    },
    {
      "inputs": [],
      "name": "deleteDefaultRoyalty",
      "outputs": [],
      "stateMutability": "nonpayable",
      "type": "function"
    },
    {
      "inputs": [
        {
          "internalType": "uint256",
          "name": "tokenId",
          "type": "uint256"
        }
      ],
      "name": "getApproved",
      "outputs": [
        {
          "internalType": "address",
          "name": "",
          "type": "address"
        }
      ],
      "stateMutability": "view",
      "type": "function"
    },
    {
      "inputs": [
        {
          "internalType": "address",
          "name": "owner",
          "type": "address"
        },
        {
          "internalType": "address",
          "name": "operator",
          "type": "address"
        }
      ],
      "name": "isApprovedForAll",
      "outputs": [
        {
          "internalType": "bool",
          "name": "",
          "type": "bool"
        }
      ],
      "stateMutability": "view",
      "type": "function"
    },
    {
      "inputs": [],
      "name": "isPresaleActive",
      "outputs": [
        {
          "internalType": "bool",
          "name": "",
          "type": "bool"
        }
      ],
      "stateMutability": "view",
      "type": "function"
    },
    {
      "inputs": [],
      "name": "isPublicSaleActive",
      "outputs": [
        {
          "internalType": "bool",
          "name": "",
          "type": "bool"
        }
      ],
      "stateMutability": "view",
      "type": "function"
    },
    {
      "inputs": [],
      "name": "maxSupply",
      "outputs": [
        {
          "internalType": "uint256",
          "name": "",
          "type": "uint256"
        }
      ],
      "stateMutability": "view",
      "type": "function"
    },
    {
      "inputs": [],
      "name": "name",
      "outputs": [
        {
          "internalType": "string",
          "name": "",
          "type": "string"
        }
      ],
      "stateMutability": "view",
      "type": "function"
    },
    {
      "inputs": [],
      "name": "owner",
      "outputs": [
        {
          "internalType": "address",
          "name": "",
          "type": "address"
        }
      ],
      "stateMutability": "view",
      "type": "function"
    },
    {
      "inputs": [
        {
          "internalType": "uint256",
          "name": "tokenId",
          "type": "uint256"
        }
      ],
      "name": "ownerOf",
      "outputs": [
        {
          "internalType": "address",
          "name": "",
          "type": "address"
        }
      ],
      "stateMutability": "view",
      "type": "function"
    },
    {
      "inputs": [
        {
          "internalType": "bytes32[]",
          "name": "merkleProof",
          "type": "bytes32[]"
        },
        {
          "internalType": "uint256",
          "name": "quantity",
          "type": "uint256"
        }
      ],
      "name": "presaleMint",
      "outputs": [],
      "stateMutability": "payable",
      "type": "function"
    },
    {
      "inputs": [],
      "name": "presalePrice",
      "outputs": [
        {
          "internalType": "uint256",
          "name": "",
          "type": "uint256"
        }
      ],
      "stateMutability": "view",
      "type": "function"
    },
    {
      "inputs": [],
      "name": "presaleSupply",
      "outputs": [
        {
          "internalType": "uint256",
          "name": "",
          "type": "uint256"
        }
      ],
      "stateMutability": "view",
      "type": "function"
    },
    {
      "inputs": [
        {
          "internalType": "uint256",
          "name": "quantity",
          "type": "uint256"
        }
      ],
      "name": "publicSaleMint",
      "outputs": [],
      "stateMutability": "payable",
      "type": "function"
    },
    {
      "inputs": [],
      "name": "publicSalePrice",
      "outputs": [
        {
          "internalType": "uint256",
          "name": "",
          "type": "uint256"
        }
      ],
      "stateMutability": "view",
      "type": "function"
    },
    {
      "inputs": [],
      "name": "renounceOwnership",
      "outputs": [],
      "stateMutability": "nonpayable",
      "type": "function"
    },
    {
      "inputs": [
        {
          "internalType": "uint256",
          "name": "tokenId",
          "type": "uint256"
        }
      ],
      "name": "resetTokenRoyalty",
      "outputs": [],
      "stateMutability": "nonpayable",
      "type": "function"
    },
    {
      "inputs": [
        {
          "internalType": "uint256",
          "name": "_tokenId",
          "type": "uint256"
        },
        {
          "internalType": "uint256",
          "name": "_salePrice",
          "type": "uint256"
        }
      ],
      "name": "royaltyInfo",
      "outputs": [
        {
          "internalType": "address",
          "name": "",
          "type": "address"
        },
        {
          "internalType": "uint256",
          "name": "",
          "type": "uint256"
        }
      ],
      "stateMutability": "view",
      "type": "function"
    },
    {
      "inputs": [
        {
          "internalType": "address",
          "name": "from",
          "type": "address"
        },
        {
          "internalType": "address",
          "name": "to",
          "type": "address"
        },
        {
          "internalType": "uint256",
          "name": "tokenId",
          "type": "uint256"
        }
      ],
      "name": "safeTransferFrom",
      "outputs": [],
      "stateMutability": "nonpayable",
      "type": "function"
    },
    {
      "inputs": [
        {
          "internalType": "address",
          "name": "from",
          "type": "address"
        },
        {
          "internalType": "address",
          "name": "to",
          "type": "address"
        },
        {
          "internalType": "uint256",
          "name": "tokenId",
          "type": "uint256"
        },
        {
          "internalType": "bytes",
          "name": "_data",
          "type": "bytes"
        }
      ],
      "name": "safeTransferFrom",
      "outputs": [],
      "stateMutability": "nonpayable",
      "type": "function"
    },
    {
      "inputs": [
        {
          "internalType": "address",
          "name": "operator",
          "type": "address"
        },
        {
          "internalType": "bool",
          "name": "approved",
          "type": "bool"
        }
      ],
      "name": "setApprovalForAll",
      "outputs": [],
      "stateMutability": "nonpayable",
      "type": "function"
    },
    {
      "inputs": [
        {
          "internalType": "string",
          "name": "baseURI_",
          "type": "string"
        }
      ],
      "name": "setBaseURI",
      "outputs": [],
      "stateMutability": "nonpayable",
      "type": "function"
    },
    {
      "inputs": [
        {
          "internalType": "address",
          "name": "receiver",
          "type": "address"
        },
        {
          "internalType": "uint96",
          "name": "feeNumerator",
          "type": "uint96"
        }
      ],
      "name": "setDefaultRoyalty",
      "outputs": [],
      "stateMutability": "nonpayable",
      "type": "function"
    },
    {
      "inputs": [
        {
          "internalType": "bytes32",
          "name": "_merkleRoot",
          "type": "bytes32"
        }
      ],
      "name": "setMerkleRoot",
      "outputs": [],
      "stateMutability": "nonpayable",
      "type": "function"
    },
    {
      "inputs": [
        {
          "internalType": "bool",
          "name": "isActive",
          "type": "bool"
        }
      ],
      "name": "setPresaleActive",
      "outputs": [],
      "stateMutability": "nonpayable",
      "type": "function"
    },
    {
      "inputs": [
        {
          "internalType": "bool",
          "name": "isActive",
          "type": "bool"
        }
      ],
      "name": "setPublicSaleActive",
      "outputs": [],
      "stateMutability": "nonpayable",
      "type": "function"
    },
    {
      "inputs": [
        {
          "internalType": "uint256",
          "name": "tokenId",
          "type": "uint256"
        },
        {
          "internalType": "address",
          "name": "receiver",
          "type": "address"
        },
        {
          "internalType": "uint96",
          "name": "feeNumerator",
          "type": "uint96"
        }
      ],
      "name": "setTokenRoyalty",
      "outputs": [],
      "stateMutability": "nonpayable",
      "type": "function"
    },
    {
      "inputs": [
        {
          "internalType": "bytes4",
          "name": "interfaceId",
          "type": "bytes4"
        }
      ],
      "name": "supportsInterface",
      "outputs": [
        {
          "internalType": "bool",
          "name": "",
          "type": "bool"
        }
      ],
      "stateMutability": "view",
      "type": "function"
    },
    {
      "inputs": [],
      "name": "symbol",
      "outputs": [
        {
          "internalType": "string",
          "name": "",
          "type": "string"
        }
      ],
      "stateMutability": "view",
      "type": "function"
    },
    {
      "inputs": [
        {
          "internalType": "uint256",
          "name": "tokenId",
          "type": "uint256"
        }
      ],
      "name": "tokenURI",
      "outputs": [
        {
          "internalType": "string",
          "name": "",
          "type": "string"
        }
      ],
      "stateMutability": "view",
      "type": "function"
    },
    {
      "inputs": [],
      "name": "totalSupply",
      "outputs": [
        {
          "internalType": "uint256",
          "name": "",
          "type": "uint256"
        }
      ],
      "stateMutability": "view",
      "type": "function"
    },
    {
      "inputs": [
        {
          "internalType": "address",
          "name": "from",
          "type": "address"
        },
        {
          "internalType": "address",
          "name": "to",
          "type": "address"
        },
        {
          "internalType": "uint256",
          "name": "tokenId",
          "type": "uint256"
        }
      ],
      "name": "transferFrom",
      "outputs": [],
      "stateMutability": "nonpayable",
      "type": "function"
    },
    {
      "inputs": [
        {
          "internalType": "address",
          "name": "newOwner",
          "type": "address"
        }
      ],
      "name": "transferOwnership",
      "outputs": [],
      "stateMutability": "nonpayable",
      "type": "function"
    },
    {
      "inputs": [],
      "name": "withdraw",
      "outputs": [],
      "stateMutability": "nonpayable",
      "type": "function"
    }
  ],
  "bytecode": "0x6101006040526000600d60006101000a81548160ff0219169083151502179055506000601060006101000a81548160ff0219169083151502179055503480156200004857600080fd5b5060405162004b4d38038062004b4d83398181016040528101906200006e91906200031a565b8585816002908051906020019062000088929190620001e1565b508060039080519060200190620000a1929190620001e1565b50620000b26200010e60201b60201c565b6000819055505050620000da620000ce6200011360201b60201c565b6200011b60201b60201c565b6001600b8190555083608081815250508260a081815250508160c081815250508060e0818152505050505050505062000576565b600090565b600033905090565b6000600a60009054906101000a900473ffffffffffffffffffffffffffffffffffffffff16905081600a60006101000a81548173ffffffffffffffffffffffffffffffffffffffff021916908373ffffffffffffffffffffffffffffffffffffffff1602179055508173ffffffffffffffffffffffffffffffffffffffff168173ffffffffffffffffffffffffffffffffffffffff167f8be0079c531659141344cd1fd0a4f28419497f9722a3daafe3b4186f6b6457e060405160405180910390a35050565b828054620001ef9062000481565b90600052602060002090601f0160209004810192826200021357600085556200025f565b82601f106200022e57805160ff19168380011785556200025f565b828001600101855582156200025f579182015b828111156200025e57825182559160200191906001019062000241565b5b5090506200026e919062000272565b5090565b5b808211156200028d57600081600090555060010162000273565b5090565b6000620002a8620002a2846200040b565b620003e2565b905082815260208101848484011115620002c157600080fd5b620002ce8482856200044b565b509392505050565b600082601f830112620002e857600080fd5b8151620002fa84826020860162000291565b91505092915050565b60008151905062000314816200055c565b92915050565b60008060008060008060c087890312156200033457600080fd5b600087015167ffffffffffffffff8111156200034f57600080fd5b6200035d89828a01620002d6565b965050602087015167ffffffffffffffff8111156200037b57600080fd5b6200038989828a01620002d6565b95505060406200039c89828a0162000303565b9450506060620003af89828a0162000303565b9350506080620003c289828a0162000303565b92505060a0620003d589828a0162000303565b9150509295509295509295565b6000620003ee62000401565b9050620003fc8282620004b7565b919050565b6000604051905090565b600067ffffffffffffffff8211156200042957620004286200051c565b5b62000434826200054b565b9050602081019050919050565b6000819050919050565b60005b838110156200046b5780820151818401526020810190506200044e565b838111156200047b576000848401525b50505050565b600060028204905060018216806200049a57607f821691505b60208210811415620004b157620004b0620004ed565b5b50919050565b620004c2826200054b565b810181811067ffffffffffffffff82111715620004e457620004e36200051c565b5b80604052505050565b7f4e487b7100000000000000000000000000000000000000000000000000000000600052602260045260246000fd5b7f4e487b7100000000000000000000000000000000000000000000000000000000600052604160045260246000fd5b6000601f19601f8301169050919050565b620005678162000441565b81146200057357600080fd5b50565b60805160a05160c05160e051614581620005cc6000396000818161137e01526116c601526000818161083e0152611c1e0152600081816115a00152611b31015260008181611658015261185401526145816000f3fe60806040526004361061020e5760003560e01c806370a0823111610118578063b3a196e9116100a0578063d5abeb011161006f578063d5abeb0114610766578063e2e06fa314610791578063e985e9c5146107ba578063f2fde38b146107f7578063fde5f548146108205761020e565b8063b3a196e9146106b9578063b3ab66b0146106e4578063b88d4fde14610700578063c87b56dd146107295761020e565b80638da5cb5b116100e75780638da5cb5b146105f857806395d89b41146106235780639b6860c81461064e578063a22cb46514610679578063aa1b103f146106a25761020e565b806370a0823114610552578063715018a61461058f5780637cb64759146105a65780638a616bc0146105cf5761020e565b80632a55205a1161019b57806342842e0e1161016a57806342842e0e1461046f57806355f804b3146104985780635944c753146104c157806360d938dc146104ea5780636352211e146105155761020e565b80632a55205a146103b457806330b42ec2146103f25780633ccfd60b1461042f5780633f8121a2146104465761020e565b8063081812fc116101e2578063081812fc146102cf578063095ea7b31461030c57806318160ddd146103355780631e84c4131461036057806323b872dd1461038b5761020e565b80620e7fa81461021357806301ffc9a71461023e57806304634d8d1461027b57806306fdde03146102a4575b600080fd5b34801561021f57600080fd5b5061022861083c565b6040516102359190613ea6565b60405180910390f35b34801561024a57600080fd5b50610265600480360381019061026091906139da565b610860565b6040516102729190613da9565b60405180910390f35b34801561028757600080fd5b506102a2600480360381019061029d91906138f8565b610872565b005b3480156102b057600080fd5b506102b96108fc565b6040516102c69190613dc4565b60405180910390f35b3480156102db57600080fd5b506102f660048036038101906102f19190613a6d565b61098e565b6040516103039190613d19565b60405180910390f35b34801561031857600080fd5b50610333600480360381019061032e91906138bc565b610a0a565b005b34801561034157600080fd5b5061034a610b0f565b6040516103579190613ea6565b60405180910390f35b34801561036c57600080fd5b50610375610b26565b6040516103829190613da9565b60405180910390f35b34801561039757600080fd5b506103b260048036038101906103ad91906137b6565b610b39565b005b3480156103c057600080fd5b506103db60048036038101906103d69190613ae5565b610b49565b6040516103e9929190613d80565b60405180910390f35b3480156103fe57600080fd5b5061041960048036038101906104149190613751565b610d34565b6040516104269190613da9565b60405180910390f35b34801561043b57600080fd5b50610444610d8a565b005b34801561045257600080fd5b5061046d60048036038101906104689190613988565b610e56565b005b34801561047b57600080fd5b50610496600480360381019061049191906137b6565b610eef565b005b3480156104a457600080fd5b506104bf60048036038101906104ba9190613a2c565b610f0f565b005b3480156104cd57600080fd5b506104e860048036038101906104e39190613a96565b610fa5565b005b3480156104f657600080fd5b506104ff611031565b60405161050c9190613da9565b60405180910390f35b34801561052157600080fd5b5061053c60048036038101906105379190613a6d565b611044565b6040516105499190613d19565b60405180910390f35b34801561055e57600080fd5b5061057960048036038101906105749190613751565b61105a565b6040516105869190613ea6565b60405180910390f35b34801561059b57600080fd5b506105a461112a565b005b3480156105b257600080fd5b506105cd60048036038101906105c891906139b1565b6111b2565b005b3480156105db57600080fd5b506105f660048036038101906105f19190613a6d565b611238565b005b34801561060457600080fd5b5061060d6112c0565b60405161061a9190613d19565b60405180910390f35b34801561062f57600080fd5b506106386112ea565b6040516106459190613dc4565b60405180910390f35b34801561065a57600080fd5b5061066361137c565b6040516106709190613ea6565b60405180910390f35b34801561068557600080fd5b506106a0600480360381019061069b9190613880565b6113a0565b005b3480156106ae57600080fd5b506106b7611518565b005b3480156106c557600080fd5b506106ce61159e565b6040516106db9190613ea6565b60405180910390f35b6106fe60048036038101906106f99190613a6d565b6115c2565b005b34801561070c57600080fd5b5061072760048036038101906107229190613805565b61173b565b005b34801561073557600080fd5b50610750600480360381019061074b9190613a6d565b6117b3565b60405161075d9190613dc4565b60405180910390f35b34801561077257600080fd5b5061077b611852565b6040516107889190613ea6565b60405180910390f35b34801561079d57600080fd5b506107b860048036038101906107b39190613988565b611876565b005b3480156107c657600080fd5b506107e160048036038101906107dc919061377a565b61190f565b6040516107ee9190613da9565b60405180910390f35b34801561080357600080fd5b5061081e60048036038101906108199190613751565b6119a3565b005b61083a60048036038101906108359190613934565b611a9b565b005b7f000000000000000000000000000000000000000000000000000000000000000081565b600061086b82611cec565b9050919050565b61087a611d66565b73ffffffffffffffffffffffffffffffffffffffff166108986112c0565b73ffffffffffffffffffffffffffffffffffffffff16146108ee576040517f08c379a00000000000000000000000000000000000000000000000000000000081526004016108e590613e06565b60405180910390fd5b6108f88282611d6e565b5050565b60606002805461090b906141a4565b80601f0160208091040260200160405190810160405280929190818152602001828054610937906141a4565b80156109845780601f1061095957610100808354040283529160200191610984565b820191906000526020600020905b81548152906001019060200180831161096757829003601f168201915b5050505050905090565b600061099982611f04565b6109cf576040517fcf4700e400000000000000000000000000000000000000000000000000000000815260040160405180910390fd5b6006600083815260200190815260200160002060009054906101000a900473ffffffffffffffffffffffffffffffffffffffff169050919050565b6000610a1582611044565b90508073ffffffffffffffffffffffffffffffffffffffff168373ffffffffffffffffffffffffffffffffffffffff161415610a7d576040517f943f7b8c00000000000000000000000000000000000000000000000000000000815260040160405180910390fd5b8073ffffffffffffffffffffffffffffffffffffffff16610a9c611d66565b73ffffffffffffffffffffffffffffffffffffffff1614610aff57610ac881610ac3611d66565b61190f565b610afe576040517fcfb3b94200000000000000000000000000000000000000000000000000000000815260040160405180910390fd5b5b610b0a838383611f52565b505050565b6000610b19612004565b6001546000540303905090565b601060009054906101000a900460ff1681565b610b44838383612009565b505050565b6000806000600960008681526020019081526020016000206040518060400160405290816000820160009054906101000a900473ffffffffffffffffffffffffffffffffffffffff1673ffffffffffffffffffffffffffffffffffffffff1673ffffffffffffffffffffffffffffffffffffffff1681526020016000820160149054906101000a90046bffffffffffffffffffffffff166bffffffffffffffffffffffff166bffffffffffffffffffffffff16815250509050600073ffffffffffffffffffffffffffffffffffffffff16816000015173ffffffffffffffffffffffffffffffffffffffff161415610cdf5760086040518060400160405290816000820160009054906101000a900473ffffffffffffffffffffffffffffffffffffffff1673ffffffffffffffffffffffffffffffffffffffff1673ffffffffffffffffffffffffffffffffffffffff1681526020016000820160149054906101000a90046bffffffffffffffffffffffff166bffffffffffffffffffffffff166bffffffffffffffffffffffff168152505090505b6000610ce96124bf565b6bffffffffffffffffffffffff1682602001516bffffffffffffffffffffffff1686610d15919061403e565b610d1f919061400d565b90508160000151819350935050509250929050565b6000600f60008373ffffffffffffffffffffffffffffffffffffffff1673ffffffffffffffffffffffffffffffffffffffff16815260200190815260200160002060009054906101000a900460ff169050919050565b610d92611d66565b73ffffffffffffffffffffffffffffffffffffffff16610db06112c0565b73ffffffffffffffffffffffffffffffffffffffff1614610e06576040517f08c379a0000000000000000000000000000000000000000000000000000000008152600401610dfd90613e06565b60405180910390fd5b610e0e6112c0565b73ffffffffffffffffffffffffffffffffffffffff166108fc479081150290604051600060405180830381858888f19350505050158015610e53573d6000803e3d6000fd5b50565b610e5e611d66565b73ffffffffffffffffffffffffffffffffffffffff16610e7c6112c0565b73ffffffffffffffffffffffffffffffffffffffff1614610ed2576040517f08c379a0000000000000000000000000000000000000000000000000000000008152600401610ec990613e06565b60405180910390fd5b80600d60006101000a81548160ff02191690831515021790555050565b610f0a8383836040518060200160405280600081525061173b565b505050565b610f17611d66565b73ffffffffffffffffffffffffffffffffffffffff16610f356112c0565b73ffffffffffffffffffffffffffffffffffffffff1614610f8b576040517f08c379a0000000000000000000000000000000000000000000000000000000008152600401610f8290613e06565b60405180910390fd5b80600c9080519060200190610fa1929190613472565b5050565b610fad611d66565b73ffffffffffffffffffffffffffffffffffffffff16610fcb6112c0565b73ffffffffffffffffffffffffffffffffffffffff1614611021576040517f08c379a000000000000000000000000000000000000000000000000000000000815260040161101890613e06565b60405180910390fd5b61102c8383836124c9565b505050565b600d60009054906101000a900460ff1681565b600061104f82612671565b600001519050919050565b60008073ffffffffffffffffffffffffffffffffffffffff168273ffffffffffffffffffffffffffffffffffffffff1614156110c2576040517f8f4eb60400000000000000000000000000000000000000000000000000000000815260040160405180910390fd5b600560008373ffffffffffffffffffffffffffffffffffffffff1673ffffffffffffffffffffffffffffffffffffffff16815260200190815260200160002060000160009054906101000a900467ffffffffffffffff1667ffffffffffffffff169050919050565b611132611d66565b73ffffffffffffffffffffffffffffffffffffffff166111506112c0565b73ffffffffffffffffffffffffffffffffffffffff16146111a6576040517f08c379a000000000000000000000000000000000000000000000000000000000815260040161119d90613e06565b60405180910390fd5b6111b060006128fc565b565b6111ba611d66565b73ffffffffffffffffffffffffffffffffffffffff166111d86112c0565b73ffffffffffffffffffffffffffffffffffffffff161461122e576040517f08c379a000000000000000000000000000000000000000000000000000000000815260040161122590613e06565b60405180910390fd5b80600e8190555050565b611240611d66565b73ffffffffffffffffffffffffffffffffffffffff1661125e6112c0565b73ffffffffffffffffffffffffffffffffffffffff16146112b4576040517f08c379a00000000000000000000000000000000000000000000000000000000081526004016112ab90613e06565b60405180910390fd5b6112bd816129c2565b50565b6000600a60009054906101000a900473ffffffffffffffffffffffffffffffffffffffff16905090565b6060600380546112f9906141a4565b80601f0160208091040260200160405190810160405280929190818152602001828054611325906141a4565b80156113725780601f1061134757610100808354040283529160200191611372565b820191906000526020600020905b81548152906001019060200180831161135557829003601f168201915b5050505050905090565b7f000000000000000000000000000000000000000000000000000000000000000081565b6113a8611d66565b73ffffffffffffffffffffffffffffffffffffffff168273ffffffffffffffffffffffffffffffffffffffff16141561140d576040517fb06307db00000000000000000000000000000000000000000000000000000000815260040160405180910390fd5b806007600061141a611d66565b73ffffffffffffffffffffffffffffffffffffffff1673ffffffffffffffffffffffffffffffffffffffff16815260200190815260200160002060008473ffffffffffffffffffffffffffffffffffffffff1673ffffffffffffffffffffffffffffffffffffffff16815260200190815260200160002060006101000a81548160ff0219169083151502179055508173ffffffffffffffffffffffffffffffffffffffff166114c7611d66565b73ffffffffffffffffffffffffffffffffffffffff167f17307eab39ab6107e8899845ad3d59bd9653f200f220920489ca2b5937696c318360405161150c9190613da9565b60405180910390a35050565b611520611d66565b73ffffffffffffffffffffffffffffffffffffffff1661153e6112c0565b73ffffffffffffffffffffffffffffffffffffffff1614611594576040517f08c379a000000000000000000000000000000000000000000000000000000000815260040161158b90613e06565b60405180910390fd5b61159c612a21565b565b7f000000000000000000000000000000000000000000000000000000000000000081565b6002600b541415611608576040517f08c379a00000000000000000000000000000000000000000000000000000000081526004016115ff90613e66565b60405180910390fd5b6002600b81905550601060009054906101000a900460ff16611656576040517f2d0a346e00000000000000000000000000000000000000000000000000000000815260040160405180910390fd5b7f000000000000000000000000000000000000000000000000000000000000000081611680610b0f565b61168a9190613fb7565b11156116c2576040517fda7cdff700000000000000000000000000000000000000000000000000000000815260040160405180910390fd5b34817f00000000000000000000000000000000000000000000000000000000000000006116ef919061403e565b14611726576040517f569e8c1100000000000000000000000000000000000000000000000000000000815260040160405180910390fd5b6117303382612a6e565b6001600b8190555050565b611746848484612009565b6117658373ffffffffffffffffffffffffffffffffffffffff16612a8c565b156117ad5761177684848484612aaf565b6117ac576040517fd1a57ed600000000000000000000000000000000000000000000000000000000815260040160405180910390fd5b5b50505050565b60606117be82611f04565b6117f4576040517fa14c4b5000000000000000000000000000000000000000000000000000000000815260040160405180910390fd5b60006117fe612c0f565b905060008151141561181f576040518060200160405280600081525061184a565b8061182984612ca1565b60405160200161183a929190613cf5565b6040516020818303038152906040525b915050919050565b7f000000000000000000000000000000000000000000000000000000000000000081565b61187e611d66565b73ffffffffffffffffffffffffffffffffffffffff1661189c6112c0565b73ffffffffffffffffffffffffffffffffffffffff16146118f2576040517f08c379a00000000000000000000000000000000000000000000000000000000081526004016118e990613e06565b60405180910390fd5b80601060006101000a81548160ff02191690831515021790555050565b6000600760008473ffffffffffffffffffffffffffffffffffffffff1673ffffffffffffffffffffffffffffffffffffffff16815260200190815260200160002060008373ffffffffffffffffffffffffffffffffffffffff1673ffffffffffffffffffffffffffffffffffffffff16815260200190815260200160002060009054906101000a900460ff16905092915050565b6119ab611d66565b73ffffffffffffffffffffffffffffffffffffffff166119c96112c0565b73ffffffffffffffffffffffffffffffffffffffff1614611a1f576040517f08c379a0000000000000000000000000000000000000000000000000000000008152600401611a1690613e06565b60405180910390fd5b600073ffffffffffffffffffffffffffffffffffffffff168173ffffffffffffffffffffffffffffffffffffffff161415611a8f576040517f08c379a0000000000000000000000000000000000000000000000000000000008152600401611a8690613de6565b60405180910390fd5b611a98816128fc565b50565b6002600b541415611ae1576040517f08c379a0000000000000000000000000000000000000000000000000000000008152600401611ad890613e66565b60405180910390fd5b6002600b81905550600d60009054906101000a900460ff16611b2f576040517f2d0a346e00000000000000000000000000000000000000000000000000000000815260040160405180910390fd5b7f000000000000000000000000000000000000000000000000000000000000000081611b59610b0f565b611b639190613fb7565b1115611b9b576040517fda7cdff700000000000000000000000000000000000000000000000000000000815260040160405180910390fd5b611ba482612e4e565b611bda576040517f69022ed800000000000000000000000000000000000000000000000000000000815260040160405180910390fd5b611be333610d34565b15611c1a576040517f52df518d00000000000000000000000000000000000000000000000000000000815260040160405180910390fd5b34817f0000000000000000000000000000000000000000000000000000000000000000611c47919061403e565b14611c7e576040517f569e8c1100000000000000000000000000000000000000000000000000000000815260040160405180910390fd5b6001600f60003373ffffffffffffffffffffffffffffffffffffffff1673ffffffffffffffffffffffffffffffffffffffff16815260200190815260200160002060006101000a81548160ff021916908315150217905550611ce03382612a6e565b6001600b819055505050565b60007f2a55205a000000000000000000000000000000000000000000000000000000007bffffffffffffffffffffffffffffffffffffffffffffffffffffffff1916827bffffffffffffffffffffffffffffffffffffffffffffffffffffffff19161480611d5f5750611d5e82612e8f565b5b9050919050565b600033905090565b611d766124bf565b6bffffffffffffffffffffffff16816bffffffffffffffffffffffff161115611dd4576040517f08c379a0000000000000000000000000000000000000000000000000000000008152600401611dcb90613e46565b60405180910390fd5b600073ffffffffffffffffffffffffffffffffffffffff168273ffffffffffffffffffffffffffffffffffffffff161415611e44576040517f08c379a0000000000000000000000000000000000000000000000000000000008152600401611e3b90613e86565b60405180910390fd5b60405180604001604052808373ffffffffffffffffffffffffffffffffffffffff168152602001826bffffffffffffffffffffffff16815250600860008201518160000160006101000a81548173ffffffffffffffffffffffffffffffffffffffff021916908373ffffffffffffffffffffffffffffffffffffffff16021790555060208201518160000160146101000a8154816bffffffffffffffffffffffff02191690836bffffffffffffffffffffffff1602179055509050505050565b600081611f0f612004565b11158015611f1e575060005482105b8015611f4b575060046000838152602001908152602001600020600001601c9054906101000a900460ff16155b9050919050565b826006600084815260200190815260200160002060006101000a81548173ffffffffffffffffffffffffffffffffffffffff021916908373ffffffffffffffffffffffffffffffffffffffff160217905550818373ffffffffffffffffffffffffffffffffffffffff168273ffffffffffffffffffffffffffffffffffffffff167f8c5be1e5ebec7d5bd14f71427d1e84f3dd0314c0f7b2291e5b200ac8c7c3b92560405160405180910390a4505050565b600090565b600061201482612671565b90508373ffffffffffffffffffffffffffffffffffffffff16816000015173ffffffffffffffffffffffffffffffffffffffff161461207f576040517fa114810000000000000000000000000000000000000000000000000000000000815260040160405180910390fd5b60008473ffffffffffffffffffffffffffffffffffffffff166120a0611d66565b73ffffffffffffffffffffffffffffffffffffffff1614806120cf57506120ce856120c9611d66565b61190f565b5b8061211457506120dd611d66565b73ffffffffffffffffffffffffffffffffffffffff166120fc8461098e565b73ffffffffffffffffffffffffffffffffffffffff16145b90508061214d576040517f59c896be00000000000000000000000000000000000000000000000000000000815260040160405180910390fd5b600073ffffffffffffffffffffffffffffffffffffffff168473ffffffffffffffffffffffffffffffffffffffff1614156121b4576040517fea553b3400000000000000000000000000000000000000000000000000000000815260040160405180910390fd5b6121c18585856001612f71565b6121cd60008487611f52565b6001600560008773ffffffffffffffffffffffffffffffffffffffff1673ffffffffffffffffffffffffffffffffffffffff16815260200190815260200160002060000160008282829054906101000a900467ffffffffffffffff160392506101000a81548167ffffffffffffffff021916908367ffffffffffffffff1602179055506001600560008673ffffffffffffffffffffffffffffffffffffffff1673ffffffffffffffffffffffffffffffffffffffff16815260200190815260200160002060000160008282829054906101000a900467ffffffffffffffff160192506101000a81548167ffffffffffffffff021916908367ffffffffffffffff1602179055506000600460008581526020019081526020016000209050848160000160006101000a81548173ffffffffffffffffffffffffffffffffffffffff021916908373ffffffffffffffffffffffffffffffffffffffff160217905550428160000160146101000a81548167ffffffffffffffff021916908367ffffffffffffffff16021790555060006001850190506000600460008381526020019081526020016000209050600073ffffffffffffffffffffffffffffffffffffffff168160000160009054906101000a900473ffffffffffffffffffffffffffffffffffffffff1673ffffffffffffffffffffffffffffffffffffffff16141561244d57600054821461244c57878160000160006101000a81548173ffffffffffffffffffffffffffffffffffffffff021916908373ffffffffffffffffffffffffffffffffffffffff16021790555084602001518160000160146101000a81548167ffffffffffffffff021916908367ffffffffffffffff1602179055505b5b505050828473ffffffffffffffffffffffffffffffffffffffff168673ffffffffffffffffffffffffffffffffffffffff167fddf252ad1be2c89b69c2b068fc378daa952ba7f163c4a11628f55a4df523b3ef60405160405180910390a46124b88585856001612f77565b5050505050565b6000612710905090565b6124d16124bf565b6bffffffffffffffffffffffff16816bffffffffffffffffffffffff16111561252f576040517f08c379a000000000000000000000000000000000000000000000000000000000815260040161252690613e46565b60405180910390fd5b600073ffffffffffffffffffffffffffffffffffffffff168273ffffffffffffffffffffffffffffffffffffffff16141561259f576040517f08c379a000000000000000000000000000000000000000000000000000000000815260040161259690613e26565b60405180910390fd5b60405180604001604052808373ffffffffffffffffffffffffffffffffffffffff168152602001826bffffffffffffffffffffffff168152506009600085815260200190815260200160002060008201518160000160006101000a81548173ffffffffffffffffffffffffffffffffffffffff021916908373ffffffffffffffffffffffffffffffffffffffff16021790555060208201518160000160146101000a8154816bffffffffffffffffffffffff02191690836bffffffffffffffffffffffff160217905550905050505050565b6126796134f8565b600082905080612687612004565b116128c5576000548110156128c4576000600460008381526020019081526020016000206040518060600160405290816000820160009054906101000a900473ffffffffffffffffffffffffffffffffffffffff1673ffffffffffffffffffffffffffffffffffffffff1673ffffffffffffffffffffffffffffffffffffffff1681526020016000820160149054906101000a900467ffffffffffffffff1667ffffffffffffffff1667ffffffffffffffff16815260200160008201601c9054906101000a900460ff161515151581525050905080604001516128c257600073ffffffffffffffffffffffffffffffffffffffff16816000015173ffffffffffffffffffffffffffffffffffffffff16146127a65780925050506128f7565b5b6001156128c157818060019003925050600460008381526020019081526020016000206040518060600160405290816000820160009054906101000a900473ffffffffffffffffffffffffffffffffffffffff1673ffffffffffffffffffffffffffffffffffffffff1673ffffffffffffffffffffffffffffffffffffffff1681526020016000820160149054906101000a900467ffffffffffffffff1667ffffffffffffffff1667ffffffffffffffff16815260200160008201601c9054906101000a900460ff1615151515815250509050600073ffffffffffffffffffffffffffffffffffffffff16816000015173ffffffffffffffffffffffffffffffffffffffff16146128bc5780925050506128f7565b6127a7565b5b505b5b6040517fdf2d9b4200000000000000000000000000000000000000000000000000000000815260040160405180910390fd5b919050565b6000600a60009054906101000a900473ffffffffffffffffffffffffffffffffffffffff16905081600a60006101000a81548173ffffffffffffffffffffffffffffffffffffffff021916908373ffffffffffffffffffffffffffffffffffffffff1602179055508173ffffffffffffffffffffffffffffffffffffffff168173ffffffffffffffffffffffffffffffffffffffff167f8be0079c531659141344cd1fd0a4f28419497f9722a3daafe3b4186f6b6457e060405160405180910390a35050565b60096000828152602001908152602001600020600080820160006101000a81549073ffffffffffffffffffffffffffffffffffffffff02191690556000820160146101000a8154906bffffffffffffffffffffffff0219169055505050565b6008600080820160006101000a81549073ffffffffffffffffffffffffffffffffffffffff02191690556000820160146101000a8154906bffffffffffffffffffffffff02191690555050565b612a88828260405180602001604052806000815250612f7d565b5050565b6000808273ffffffffffffffffffffffffffffffffffffffff163b119050919050565b60008373ffffffffffffffffffffffffffffffffffffffff1663150b7a02612ad5611d66565b8786866040518563ffffffff1660e01b8152600401612af79493929190613d34565b602060405180830381600087803b158015612b1157600080fd5b505af1925050508015612b4257506040513d601f19601f82011682018060405250810190612b3f9190613a03565b60015b612bbc573d8060008114612b72576040519150601f19603f3d011682016040523d82523d6000602084013e612b77565b606091505b50600081511415612bb4576040517fd1a57ed600000000000000000000000000000000000000000000000000000000815260040160405180910390fd5b805181602001fd5b63150b7a0260e01b7bffffffffffffffffffffffffffffffffffffffffffffffffffffffff1916817bffffffffffffffffffffffffffffffffffffffffffffffffffffffff191614915050949350505050565b6060600c8054612c1e906141a4565b80601f0160208091040260200160405190810160405280929190818152602001828054612c4a906141a4565b8015612c975780601f10612c6c57610100808354040283529160200191612c97565b820191906000526020600020905b815481529060010190602001808311612c7a57829003601f168201915b5050505050905090565b60606000821415612ce9576040518060400160405280600181526020017f30000000000000000000000000000000000000000000000000000000000000008152509050612e49565b600082905060005b60008214612d1b578080612d0490614207565b915050600a82612d14919061400d565b9150612cf1565b60008167ffffffffffffffff811115612d5d577f4e487b7100000000000000000000000000000000000000000000000000000000600052604160045260246000fd5b6040519080825280601f01601f191660200182016040528015612d8f5781602001600182028036833780820191505090505b5090505b60008514612e4257600182612da89190614098565b9150600a85612db79190614274565b6030612dc39190613fb7565b60f81b818381518110612dff577f4e487b7100000000000000000000000000000000000000000000000000000000600052603260045260246000fd5b60200101907effffffffffffffffffffffffffffffffffffffffffffffffffffffffffffff1916908160001a905350600a85612e3b919061400d565b9450612d93565b8093505050505b919050565b60008033604051602001612e629190613cda565b604051602081830303815290604052805190602001209050612e8783600e548361333f565b915050919050565b60007f80ac58cd000000000000000000000000000000000000000000000000000000007bffffffffffffffffffffffffffffffffffffffffffffffffffffffff1916827bffffffffffffffffffffffffffffffffffffffffffffffffffffffff19161480612f5a57507f5b5e139f000000000000000000000000000000000000000000000000000000007bffffffffffffffffffffffffffffffffffffffffffffffffffffffff1916827bffffffffffffffffffffffffffffffffffffffffffffffffffffffff1916145b80612f6a5750612f6982613356565b5b9050919050565b50505050565b50505050565b600080549050600073ffffffffffffffffffffffffffffffffffffffff168473ffffffffffffffffffffffffffffffffffffffff161415612fea576040517f2e07630000000000000000000000000000000000000000000000000000000000815260040160405180910390fd5b6000831415613025576040517fb562e8dd00000000000000000000000000000000000000000000000000000000815260040160405180910390fd5b6130326000858386612f71565b82600560008673ffffffffffffffffffffffffffffffffffffffff1673ffffffffffffffffffffffffffffffffffffffff16815260200190815260200160002060000160008282829054906101000a900467ffffffffffffffff160192506101000a81548167ffffffffffffffff021916908367ffffffffffffffff16021790555082600560008673ffffffffffffffffffffffffffffffffffffffff1673ffffffffffffffffffffffffffffffffffffffff16815260200190815260200160002060000160088282829054906101000a900467ffffffffffffffff160192506101000a81548167ffffffffffffffff021916908367ffffffffffffffff160217905550836004600083815260200190815260200160002060000160006101000a81548173ffffffffffffffffffffffffffffffffffffffff021916908373ffffffffffffffffffffffffffffffffffffffff160217905550426004600083815260200190815260200160002060000160146101000a81548167ffffffffffffffff021916908367ffffffffffffffff1602179055506000819050600084820190506131f38673ffffffffffffffffffffffffffffffffffffffff16612a8c565b156132b8575b818673ffffffffffffffffffffffffffffffffffffffff16600073ffffffffffffffffffffffffffffffffffffffff167fddf252ad1be2c89b69c2b068fc378daa952ba7f163c4a11628f55a4df523b3ef60405160405180910390a46132686000878480600101955087612aaf565b61329e576040517fd1a57ed600000000000000000000000000000000000000000000000000000000815260040160405180910390fd5b8082106131f95782600054146132b357600080fd5b613323565b5b818060010192508673ffffffffffffffffffffffffffffffffffffffff16600073ffffffffffffffffffffffffffffffffffffffff167fddf252ad1be2c89b69c2b068fc378daa952ba7f163c4a11628f55a4df523b3ef60405160405180910390a48082106132b9575b8160008190555050506133396000858386612f77565b50505050565b60008261334c85846133c0565b1490509392505050565b60007f01ffc9a7000000000000000000000000000000000000000000000000000000007bffffffffffffffffffffffffffffffffffffffffffffffffffffffff1916827bffffffffffffffffffffffffffffffffffffffffffffffffffffffff1916149050919050565b60008082905060005b845181101561345057600085828151811061340d577f4e487b7100000000000000000000000000000000000000000000000000000000600052603260045260246000fd5b6020026020010151905080831161342f57613428838261345b565b925061343c565b613439818461345b565b92505b50808061344890614207565b9150506133c9565b508091505092915050565b600082600052816020526040600020905092915050565b82805461347e906141a4565b90600052602060002090601f0160209004810192826134a057600085556134e7565b82601f106134b957805160ff19168380011785556134e7565b828001600101855582156134e7579182015b828111156134e65782518255916020019190600101906134cb565b5b5090506134f4919061353b565b5090565b6040518060600160405280600073ffffffffffffffffffffffffffffffffffffffff168152602001600067ffffffffffffffff1681526020016000151581525090565b5b8082111561355457600081600090555060010161353c565b5090565b600061356b61356684613ee6565b613ec1565b9050808382526020820190508285602086028201111561358a57600080fd5b60005b858110156135ba57816135a08882613694565b84526020840193506020830192505060018101905061358d565b5050509392505050565b60006135d76135d284613f12565b613ec1565b9050828152602081018484840111156135ef57600080fd5b6135fa848285614162565b509392505050565b600061361561361084613f43565b613ec1565b90508281526020810184848401111561362d57600080fd5b613638848285614162565b509392505050565b60008135905061364f816144c1565b92915050565b600082601f83011261366657600080fd5b8135613676848260208601613558565b91505092915050565b60008135905061368e816144d8565b92915050565b6000813590506136a3816144ef565b92915050565b6000813590506136b881614506565b92915050565b6000815190506136cd81614506565b92915050565b600082601f8301126136e457600080fd5b81356136f48482602086016135c4565b91505092915050565b600082601f83011261370e57600080fd5b813561371e848260208601613602565b91505092915050565b6000813590506137368161451d565b92915050565b60008135905061374b81614534565b92915050565b60006020828403121561376357600080fd5b600061377184828501613640565b91505092915050565b6000806040838503121561378d57600080fd5b600061379b85828601613640565b92505060206137ac85828601613640565b9150509250929050565b6000806000606084860312156137cb57600080fd5b60006137d986828701613640565b93505060206137ea86828701613640565b92505060406137fb86828701613727565b9150509250925092565b6000806000806080858703121561381b57600080fd5b600061382987828801613640565b945050602061383a87828801613640565b935050604061384b87828801613727565b925050606085013567ffffffffffffffff81111561386857600080fd5b613874878288016136d3565b91505092959194509250565b6000806040838503121561389357600080fd5b60006138a185828601613640565b92505060206138b28582860161367f565b9150509250929050565b600080604083850312156138cf57600080fd5b60006138dd85828601613640565b92505060206138ee85828601613727565b9150509250929050565b6000806040838503121561390b57600080fd5b600061391985828601613640565b925050602061392a8582860161373c565b9150509250929050565b6000806040838503121561394757600080fd5b600083013567ffffffffffffffff81111561396157600080fd5b61396d85828601613655565b925050602061397e85828601613727565b9150509250929050565b60006020828403121561399a57600080fd5b60006139a88482850161367f565b91505092915050565b6000602082840312156139c357600080fd5b60006139d184828501613694565b91505092915050565b6000602082840312156139ec57600080fd5b60006139fa848285016136a9565b91505092915050565b600060208284031215613a1557600080fd5b6000613a23848285016136be565b91505092915050565b600060208284031215613a3e57600080fd5b600082013567ffffffffffffffff811115613a5857600080fd5b613a64848285016136fd565b91505092915050565b600060208284031215613a7f57600080fd5b6000613a8d84828501613727565b91505092915050565b600080600060608486031215613aab57600080fd5b6000613ab986828701613727565b9350506020613aca86828701613640565b9250506040613adb8682870161373c565b9150509250925092565b60008060408385031215613af857600080fd5b6000613b0685828601613727565b9250506020613b1785828601613727565b9150509250929050565b613b2a816140cc565b82525050565b613b41613b3c826140cc565b614250565b82525050565b613b50816140de565b82525050565b6000613b6182613f74565b613b6b8185613f8a565b9350613b7b818560208601614171565b613b8481614361565b840191505092915050565b6000613b9a82613f7f565b613ba48185613f9b565b9350613bb4818560208601614171565b613bbd81614361565b840191505092915050565b6000613bd382613f7f565b613bdd8185613fac565b9350613bed818560208601614171565b80840191505092915050565b6000613c06602683613f9b565b9150613c118261437f565b604082019050919050565b6000613c29602083613f9b565b9150613c34826143ce565b602082019050919050565b6000613c4c601b83613f9b565b9150613c57826143f7565b602082019050919050565b6000613c6f602a83613f9b565b9150613c7a82614420565b604082019050919050565b6000613c92601f83613f9b565b9150613c9d8261446f565b602082019050919050565b6000613cb5601983613f9b565b9150613cc082614498565b602082019050919050565b613cd481614140565b82525050565b6000613ce68284613b30565b60148201915081905092915050565b6000613d018285613bc8565b9150613d0d8284613bc8565b91508190509392505050565b6000602082019050613d2e6000830184613b21565b92915050565b6000608082019050613d496000830187613b21565b613d566020830186613b21565b613d636040830185613ccb565b8181036060830152613d758184613b56565b905095945050505050565b6000604082019050613d956000830185613b21565b613da26020830184613ccb565b9392505050565b6000602082019050613dbe6000830184613b47565b92915050565b60006020820190508181036000830152613dde8184613b8f565b905092915050565b60006020820190508181036000830152613dff81613bf9565b9050919050565b60006020820190508181036000830152613e1f81613c1c565b9050919050565b60006020820190508181036000830152613e3f81613c3f565b9050919050565b60006020820190508181036000830152613e5f81613c62565b9050919050565b60006020820190508181036000830152613e7f81613c85565b9050919050565b60006020820190508181036000830152613e9f81613ca8565b9050919050565b6000602082019050613ebb6000830184613ccb565b92915050565b6000613ecb613edc565b9050613ed782826141d6565b919050565b6000604051905090565b600067ffffffffffffffff821115613f0157613f00614332565b5b602082029050602081019050919050565b600067ffffffffffffffff821115613f2d57613f2c614332565b5b613f3682614361565b9050602081019050919050565b600067ffffffffffffffff821115613f5e57613f5d614332565b5b613f6782614361565b9050602081019050919050565b600081519050919050565b600081519050919050565b600082825260208201905092915050565b600082825260208201905092915050565b600081905092915050565b6000613fc282614140565b9150613fcd83614140565b9250827fffffffffffffffffffffffffffffffffffffffffffffffffffffffffffffffff03821115614002576140016142a5565b5b828201905092915050565b600061401882614140565b915061402383614140565b925082614033576140326142d4565b5b828204905092915050565b600061404982614140565b915061405483614140565b9250817fffffffffffffffffffffffffffffffffffffffffffffffffffffffffffffffff048311821515161561408d5761408c6142a5565b5b828202905092915050565b60006140a382614140565b91506140ae83614140565b9250828210156140c1576140c06142a5565b5b828203905092915050565b60006140d782614120565b9050919050565b60008115159050919050565b6000819050919050565b60007fffffffff0000000000000000000000000000000000000000000000000000000082169050919050565b600073ffffffffffffffffffffffffffffffffffffffff82169050919050565b6000819050919050565b60006bffffffffffffffffffffffff82169050919050565b82818337600083830152505050565b60005b8381101561418f578082015181840152602081019050614174565b8381111561419e576000848401525b50505050565b600060028204905060018216806141bc57607f821691505b602082108114156141d0576141cf614303565b5b50919050565b6141df82614361565b810181811067ffffffffffffffff821117156141fe576141fd614332565b5b80604052505050565b600061421282614140565b91507fffffffffffffffffffffffffffffffffffffffffffffffffffffffffffffffff821415614245576142446142a5565b5b600182019050919050565b600061425b82614262565b9050919050565b600061426d82614372565b9050919050565b600061427f82614140565b915061428a83614140565b92508261429a576142996142d4565b5b828206905092915050565b7f4e487b7100000000000000000000000000000000000000000000000000000000600052601160045260246000fd5b7f4e487b7100000000000000000000000000000000000000000000000000000000600052601260045260246000fd5b7f4e487b7100000000000000000000000000000000000000000000000000000000600052602260045260246000fd5b7f4e487b7100000000000000000000000000000000000000000000000000000000600052604160045260246000fd5b6000601f19601f8301169050919050565b60008160601b9050919050565b7f4f776e61626c653a206e6577206f776e657220697320746865207a65726f206160008201527f6464726573730000000000000000000000000000000000000000000000000000602082015250565b7f4f776e61626c653a2063616c6c6572206973206e6f7420746865206f776e6572600082015250565b7f455243323938313a20496e76616c696420706172616d65746572730000000000600082015250565b7f455243323938313a20726f79616c7479206665652077696c6c2065786365656460008201527f2073616c65507269636500000000000000000000000000000000000000000000602082015250565b7f5265656e7472616e637947756172643a207265656e7472616e742063616c6c00600082015250565b7f455243323938313a20696e76616c696420726563656976657200000000000000600082015250565b6144ca816140cc565b81146144d557600080fd5b50565b6144e1816140de565b81146144ec57600080fd5b50565b6144f8816140ea565b811461450357600080fd5b50565b61450f816140f4565b811461451a57600080fd5b50565b61452681614140565b811461453157600080fd5b50565b61453d8161414a565b811461454857600080fd5b5056fea264697066735822122033323ecdfbbb24fc77d0c3da4c037f154286ef73cfeae9c65ba0ab97a42f906664736f6c63430008040033",
  "linkReferences": {},
  "deployedLinkReferences": {}
}